{
  "_format": "hh-sol-artifact-1",
  "contractName": "ShipmentRegistry",
  "sourceName": "contracts/ShipmentRegistry.sol",
  "abi": [
    {
      "inputs": [],
      "stateMutability": "nonpayable",
      "type": "constructor"
    },
    {
      "inputs": [],
      "name": "AccessControlBadConfirmation",
      "type": "error"
    },
    {
      "inputs": [
        {
          "internalType": "address",
          "name": "account",
          "type": "address"
        },
        {
          "internalType": "bytes32",
          "name": "neededRole",
          "type": "bytes32"
        }
      ],
      "name": "AccessControlUnauthorizedAccount",
      "type": "error"
    },
    {
      "inputs": [],
      "name": "InvalidHash",
      "type": "error"
    },
    {
      "inputs": [],
      "name": "InvalidStatusTransition",
      "type": "error"
    },
    {
      "inputs": [],
      "name": "ShipmentAlreadyExists",
      "type": "error"
    },
    {
      "inputs": [],
      "name": "ShipmentNotFound",
      "type": "error"
    },
    {
      "inputs": [],
      "name": "Unauthorized",
      "type": "error"
    },
    {
      "anonymous": false,
      "inputs": [
        {
          "indexed": true,
          "internalType": "bytes32",
          "name": "role",
          "type": "bytes32"
        },
        {
          "indexed": true,
          "internalType": "bytes32",
          "name": "previousAdminRole",
          "type": "bytes32"
        },
        {
          "indexed": true,
          "internalType": "bytes32",
          "name": "newAdminRole",
          "type": "bytes32"
        }
      ],
      "name": "RoleAdminChanged",
      "type": "event"
    },
    {
      "anonymous": false,
      "inputs": [
        {
          "indexed": true,
          "internalType": "bytes32",
          "name": "role",
          "type": "bytes32"
        },
        {
          "indexed": true,
          "internalType": "address",
          "name": "account",
          "type": "address"
        },
        {
          "indexed": true,
          "internalType": "address",
          "name": "sender",
          "type": "address"
        }
      ],
      "name": "RoleGranted",
      "type": "event"
    },
    {
      "anonymous": false,
      "inputs": [
        {
          "indexed": true,
          "internalType": "bytes32",
          "name": "role",
          "type": "bytes32"
        },
        {
          "indexed": true,
          "internalType": "address",
          "name": "account",
          "type": "address"
        },
        {
          "indexed": true,
          "internalType": "address",
          "name": "sender",
          "type": "address"
        }
      ],
      "name": "RoleRevoked",
      "type": "event"
    },
    {
      "anonymous": false,
      "inputs": [
        {
          "indexed": false,
          "internalType": "bytes32",
          "name": "shipmentId",
          "type": "bytes32"
        },
        {
          "indexed": false,
          "internalType": "address",
          "name": "sender",
          "type": "address"
        }
      ],
      "name": "ShipmentCreated",
      "type": "event"
    },
    {
      "anonymous": false,
      "inputs": [
        {
          "indexed": false,
          "internalType": "bytes32",
          "name": "shipmentId",
          "type": "bytes32"
        },
        {
          "indexed": false,
          "internalType": "uint256",
          "name": "timestamp",
          "type": "uint256"
        }
      ],
      "name": "ShipmentVerified",
      "type": "event"
    },
    {
      "anonymous": false,
      "inputs": [
        {
          "indexed": false,
          "internalType": "bytes32",
          "name": "shipmentId",
          "type": "bytes32"
        },
        {
          "indexed": false,
          "internalType": "uint8",
          "name": "status",
          "type": "uint8"
        },
        {
          "indexed": false,
          "internalType": "uint256",
          "name": "timestamp",
          "type": "uint256"
        }
      ],
      "name": "StatusUpdated",
      "type": "event"
    },
    {
      "inputs": [],
      "name": "CARRIER_ROLE",
      "outputs": [
        {
          "internalType": "bytes32",
          "name": "",
          "type": "bytes32"
        }
      ],
      "stateMutability": "view",
      "type": "function"
    },
    {
      "inputs": [],
      "name": "DEFAULT_ADMIN_ROLE",
      "outputs": [
        {
          "internalType": "bytes32",
          "name": "",
          "type": "bytes32"
        }
      ],
      "stateMutability": "view",
      "type": "function"
    },
    {
      "inputs": [],
      "name": "PACKAGING_STAFF_ROLE",
      "outputs": [
        {
          "internalType": "bytes32",
          "name": "",
          "type": "bytes32"
        }
      ],
      "stateMutability": "view",
      "type": "function"
    },
    {
      "inputs": [
        {
          "internalType": "bytes32",
          "name": "shipmentId",
          "type": "bytes32"
        },
        {
          "internalType": "address",
          "name": "carrier",
          "type": "address"
        },
        {
          "internalType": "bytes32",
          "name": "specHash",
          "type": "bytes32"
        },
        {
          "internalType": "bytes32",
          "name": "specIPFSHash",
          "type": "bytes32"
        },
        {
          "internalType": "uint40",
          "name": "estimatedDelivery",
          "type": "uint40"
        }
      ],
      "name": "createShipment",
      "outputs": [],
      "stateMutability": "nonpayable",
      "type": "function"
    },
    {
      "inputs": [
        {
          "internalType": "bytes32",
          "name": "role",
          "type": "bytes32"
        }
      ],
      "name": "getRoleAdmin",
      "outputs": [
        {
          "internalType": "bytes32",
          "name": "",
          "type": "bytes32"
        }
      ],
      "stateMutability": "view",
      "type": "function"
    },
    {
      "inputs": [
        {
          "internalType": "bytes32",
          "name": "shipmentId",
          "type": "bytes32"
        }
      ],
      "name": "getShipment",
      "outputs": [
        {
          "components": [
            {
              "internalType": "bytes32",
              "name": "shipmentId",
              "type": "bytes32"
            },
            {
              "internalType": "bytes32",
              "name": "specHash",
              "type": "bytes32"
            },
            {
              "internalType": "bytes32",
              "name": "specIPFSHash",
              "type": "bytes32"
            },
            {
              "internalType": "address",
              "name": "sender",
              "type": "address"
            },
            {
              "internalType": "address",
              "name": "carrierAddress",
              "type": "address"
            },
            {
              "internalType": "uint40",
              "name": "createdAt",
              "type": "uint40"
            },
            {
              "internalType": "uint40",
              "name": "estimatedDelivery",
              "type": "uint40"
            },
            {
              "internalType": "uint8",
              "name": "currentStatus",
              "type": "uint8"
            },
            {
              "internalType": "bool",
              "name": "isAuthentic",
              "type": "bool"
            }
          ],
          "internalType": "struct ShipmentRegistry.Shipment",
          "name": "",
          "type": "tuple"
        }
      ],
      "stateMutability": "view",
      "type": "function"
    },
    {
      "inputs": [
        {
          "internalType": "bytes32",
          "name": "role",
          "type": "bytes32"
        },
        {
          "internalType": "address",
          "name": "account",
          "type": "address"
        }
      ],
      "name": "grantRole",
      "outputs": [],
      "stateMutability": "nonpayable",
      "type": "function"
    },
    {
      "inputs": [
        {
          "internalType": "bytes32",
          "name": "role",
          "type": "bytes32"
        },
        {
          "internalType": "address",
          "name": "account",
          "type": "address"
        }
      ],
      "name": "hasRole",
      "outputs": [
        {
          "internalType": "bool",
          "name": "",
          "type": "bool"
        }
      ],
      "stateMutability": "view",
      "type": "function"
    },
    {
      "inputs": [
        {
          "internalType": "bytes32",
          "name": "role",
          "type": "bytes32"
        },
        {
          "internalType": "address",
          "name": "callerConfirmation",
          "type": "address"
        }
      ],
      "name": "renounceRole",
      "outputs": [],
      "stateMutability": "nonpayable",
      "type": "function"
    },
    {
      "inputs": [
        {
          "internalType": "bytes32",
          "name": "role",
          "type": "bytes32"
        },
        {
          "internalType": "address",
          "name": "account",
          "type": "address"
        }
      ],
      "name": "revokeRole",
      "outputs": [],
      "stateMutability": "nonpayable",
      "type": "function"
    },
    {
      "inputs": [
        {
          "internalType": "bytes32",
          "name": "",
          "type": "bytes32"
        }
      ],
      "name": "shipments",
      "outputs": [
        {
          "internalType": "bytes32",
          "name": "shipmentId",
          "type": "bytes32"
        },
        {
          "internalType": "bytes32",
          "name": "specHash",
          "type": "bytes32"
        },
        {
          "internalType": "bytes32",
          "name": "specIPFSHash",
          "type": "bytes32"
        },
        {
          "internalType": "address",
          "name": "sender",
          "type": "address"
        },
        {
          "internalType": "address",
          "name": "carrierAddress",
          "type": "address"
        },
        {
          "internalType": "uint40",
          "name": "createdAt",
          "type": "uint40"
        },
        {
          "internalType": "uint40",
          "name": "estimatedDelivery",
          "type": "uint40"
        },
        {
          "internalType": "uint8",
          "name": "currentStatus",
          "type": "uint8"
        },
        {
          "internalType": "bool",
          "name": "isAuthentic",
          "type": "bool"
        }
      ],
      "stateMutability": "view",
      "type": "function"
    },
    {
      "inputs": [
        {
          "internalType": "bytes4",
          "name": "interfaceId",
          "type": "bytes4"
        }
      ],
      "name": "supportsInterface",
      "outputs": [
        {
          "internalType": "bool",
          "name": "",
          "type": "bool"
        }
      ],
      "stateMutability": "view",
      "type": "function"
    },
    {
      "inputs": [
        {
          "internalType": "bytes32",
          "name": "shipmentId",
          "type": "bytes32"
        },
        {
          "internalType": "enum ShipmentRegistry.Status",
          "name": "newStatus",
          "type": "uint8"
        }
      ],
      "name": "updateStatus",
      "outputs": [],
      "stateMutability": "nonpayable",
      "type": "function"
    },
    {
      "inputs": [
        {
          "internalType": "bytes32",
          "name": "shipmentId",
          "type": "bytes32"
        },
        {
          "internalType": "bytes32",
          "name": "providedHash",
          "type": "bytes32"
        }
      ],
      "name": "verifyShipment",
      "outputs": [],
      "stateMutability": "nonpayable",
      "type": "function"
    }
  ],
  "bytecode": "0x608060405234801561001057600080fd5b5061001c600033610022565b506100ce565b6000828152602081815260408083206001600160a01b038516845290915281205460ff166100c4576000838152602081815260408083206001600160a01b03861684529091529020805460ff1916600117905561007c3390565b6001600160a01b0316826001600160a01b0316847f2f8788117e7eff1d82e926ec794901d17c78024a50270940304540a733656f0d60405160405180910390a45060016100c8565b5060005b92915050565b610d18806100dd6000396000f3fe608060405234801561001057600080fd5b50600436106100ea5760003560e01c806358cb7c411161008c57806391d148541161006657806391d1485414610217578063a217fddf1461022a578063d547741f14610232578063d87b40411461024557600080fd5b806358cb7c41146101bd5780635e03f462146101dd57806365a1be48146101f057600080fd5b8063248a9ca3116100c8578063248a9ca31461013f5780632f2ff15d1461017057806336568abe1461018357806349f17b3c1461019657600080fd5b806301ffc9a7146100ef578063054372ed146101175780630924938c1461012c575b600080fd5b6101026100fd366004610ac4565b61031b565b60405190151581526020015b60405180910390f35b61012a610125366004610af5565b610352565b005b61012a61013a366004610b29565b61048a565b61016261014d366004610b4b565b60009081526020819052604090206001015490565b60405190815260200161010e565b61012a61017e366004610b80565b6105c2565b61012a610191366004610b80565b6105ed565b6101627f698705c825f74dba5f85a26a7dc4df041d92aabaf3c43583385de969ddf97a8481565b6101d06101cb366004610b4b565b610625565b60405161010e9190610bac565b61012a6101eb366004610c47565b61074e565b6101627feb998ffefd22a823ed46d63e27357a1eefa908b6ba6804ac328694f77956b46981565b610102610225366004610b80565b61092b565b610162600081565b61012a610240366004610b80565b610954565b6102bf610253366004610b4b565b600160208190526000918252604090912080549181015460028201546003830154600490930154919290916001600160a01b039182169181169064ffffffffff600160a01b8204811691600160c81b81049091169060ff600160f01b8204811691600160f81b90041689565b60408051998a5260208a0198909852968801959095526001600160a01b03938416606088015292909116608086015264ffffffffff90811660a08601521660c084015260ff1660e083015215156101008201526101200161010e565b60006001600160e01b03198216637965db0b60e01b148061034c57506301ffc9a760e01b6001600160e01b03198316145b92915050565b7feb998ffefd22a823ed46d63e27357a1eefa908b6ba6804ac328694f77956b46961037c81610979565b600083815260016020526040812060040154600160a01b900464ffffffffff1690036103bb5760405163124b8b2b60e31b815260040160405180910390fd5b600083815260016020526040812060048101549091600160f01b90910460ff16908460058111156103ee576103ee610ca5565b90506103fb826001610cbb565b60ff168160ff16146104205760405163088bd32360e11b815260040160405180910390fd5b60048301805460ff60f01b1916600160f01b60ff84169081029190911790915560408051888152602081019290925242908201527fc22b1c56c42792157c9527d487f3d64da9b809812b4f8839b72c80229cf86707906060015b60405180910390a1505050505050565b600082815260016020526040812060040154600160a01b900464ffffffffff1690036104c95760405163124b8b2b60e31b815260040160405180910390fd5b60008281526001602081905260409091209081015482146104fc576040516257c03760e51b815260040160405180910390fd5b60048101546002600160f01b90910460ff16111561052d5760405163088bd32360e11b815260040160405180910390fd5b600481018054608160f11b6001600160f01b03909116179055604080518481524260208201527f8e56870d3c6394fc45ca6d312da468005ab17f785c4c134ace1b645c3dfb9e78910160405180910390a16040805184815260026020820152428183015290517fc22b1c56c42792157c9527d487f3d64da9b809812b4f8839b72c80229cf867079181900360600190a1505050565b6000828152602081905260409020600101546105dd81610979565b6105e78383610986565b50505050565b6001600160a01b03811633146106165760405163334bd91960e11b815260040160405180910390fd5b6106208282610a18565b505050565b6040805161012081018252600080825260208201819052918101829052606081018290526080810182905260a0810182905260c0810182905260e08101829052610100810191909152600082815260016020526040812060040154600160a01b900464ffffffffff1690036106ad5760405163124b8b2b60e31b815260040160405180910390fd5b5060009081526001602081815260409283902083516101208101855281548152928101549183019190915260028101549282019290925260038201546001600160a01b039081166060830152600490920154918216608082015264ffffffffff600160a01b8304811660a0830152600160c81b83041660c082015260ff600160f01b8304811660e0830152600160f81b909204909116151561010082015290565b7f698705c825f74dba5f85a26a7dc4df041d92aabaf3c43583385de969ddf97a8461077881610979565b600086815260016020526040902060040154600160a01b900464ffffffffff16156107b6576040516305eb8d5960e21b815260040160405180910390fd5b6040805161012081018252878152602081018690529081018490523360608201526001600160a01b038616608082015264ffffffffff42811660a0830152831660c082015260e08101600060ff908116825260006020928301819052898152600180845260409182902085518155938501519084015583810151600284015560608401516003840180546001600160a01b039283166001600160a01b031990911617905560808501516004909401805460a087015160c088015160e0890151610100909901511515600160f81b026001600160f81b0399909716600160f01b0260ff60f01b1964ffffffffff928316600160c81b021665ffffffffffff60c81b1992909316600160a01b026001600160c81b031990941698909516979097179190911795909516949094171793909316179055517feafcb7522e85d9eae0c24efc5e90663c353188cffaaee33e50b023cb4a1957eb9061047a90889033909182526001600160a01b0316602082015260400190565b6000918252602082815260408084206001600160a01b0393909316845291905290205460ff1690565b60008281526020819052604090206001015461096f81610979565b6105e78383610a18565b6109838133610a83565b50565b6000610992838361092b565b610a10576000838152602081815260408083206001600160a01b03861684529091529020805460ff191660011790556109c83390565b6001600160a01b0316826001600160a01b0316847f2f8788117e7eff1d82e926ec794901d17c78024a50270940304540a733656f0d60405160405180910390a450600161034c565b50600061034c565b6000610a24838361092b565b15610a10576000838152602081815260408083206001600160a01b0386168085529252808320805460ff1916905551339286917ff6391f5c32d9c69d2a47ea670b442974b53935d1edc7fd64eb21e047a839171b9190a450600161034c565b610a8d828261092b565b610ac05760405163e2517d3f60e01b81526001600160a01b03821660048201526024810183905260440160405180910390fd5b5050565b600060208284031215610ad657600080fd5b81356001600160e01b031981168114610aee57600080fd5b9392505050565b60008060408385031215610b0857600080fd5b82359150602083013560068110610b1e57600080fd5b809150509250929050565b60008060408385031215610b3c57600080fd5b50508035926020909101359150565b600060208284031215610b5d57600080fd5b5035919050565b80356001600160a01b0381168114610b7b57600080fd5b919050565b60008060408385031215610b9357600080fd5b82359150610ba360208401610b64565b90509250929050565b600061012082019050825182526020830151602083015260408301516040830152606083015160018060a01b038082166060850152806080860151166080850152505060a0830151610c0760a084018264ffffffffff169052565b5060c0830151610c2060c084018264ffffffffff169052565b5060e0830151610c3560e084018260ff169052565b50610100928301511515919092015290565b600080600080600060a08688031215610c5f57600080fd5b85359450610c6f60208701610b64565b93506040860135925060608601359150608086013564ffffffffff81168114610c9757600080fd5b809150509295509295909350565b634e487b7160e01b600052602160045260246000fd5b60ff818116838216019081111561034c57634e487b7160e01b600052601160045260246000fdfea2646970667358221220450ec4d66e78243e1b837b3e99703177a87bd7725bbf88c84ec83e40787b0cbd64736f6c63430008140033",
  "linkReferences": {},
  "deployedLinkReferences": {}
}